{
  "transactions": [
    {
      "hash": "0x9b3efd6c988a213a7b9235f4338b01fccf6782ec4d30e062049c2a06387b8edc",
      "transactionType": "CALL",
      "contractName": null,
      "contractAddress": "0x779877a7b0d9e8603169ddbd7836e478b4624789",
      "function": "transferAndCall(address,uint256,bytes)",
      "arguments": [
        "0x9DdfaCa8183c41ad55329BdeeD9F6A8d53168B1B",
        "3000000000000000000",
        "0x50bd4924a835d8626a6fbd1b0dd412c946b5abc78d2f7b6118fa3a5c5902e072"
      ],
      "transaction": {
        "from": "0xfbe6240fa92da1a8d969fd4518e56bfe475594e0",
        "to": "0x779877a7b0d9e8603169ddbd7836e478b4624789",
        "gas": "0x1c1ff",
        "value": "0x0",
        "input": "0x4000aea00000000000000000000000009ddfaca8183c41ad55329bdeed9f6a8d53168b1b00000000000000000000000000000000000000000000000029a2241af62c00000000000000000000000000000000000000000000000000000000000000000060000000000000000000000000000000000000000000000000000000000000002050bd4924a835d8626a6fbd1b0dd412c946b5abc78d2f7b6118fa3a5c5902e072",
        "nonce": "0x5d",
        "chainId": "0xaa36a7"
      },
      "additionalContracts": [],
      "isFixedGasLimit": false
    }
  ],
  "receipts": [
    {
      "status": "0x1",
      "cumulativeGasUsed": "0xbe8eb9",
      "logs": [
        {
          "address": "0x779877a7b0d9e8603169ddbd7836e478b4624789",
          "topics": [
            "0xddf252ad1be2c89b69c2b068fc378daa952ba7f163c4a11628f55a4df523b3ef",
            "0x000000000000000000000000fbe6240fa92da1a8d969fd4518e56bfe475594e0",
            "0x0000000000000000000000009ddfaca8183c41ad55329bdeed9f6a8d53168b1b"
          ],
          "data": "0x00000000000000000000000000000000000000000000000029a2241af62c0000",
          "blockHash": "0x30219e98292291add287770928b3b7a922b924c414591ad4ac3f8423c929d76e",
          "blockNumber": "0x952b95",
          "blockTimestamp": "0x69331b30",
          "transactionHash": "0x9b3efd6c988a213a7b9235f4338b01fccf6782ec4d30e062049c2a06387b8edc",
          "transactionIndex": "0x16",
          "logIndex": "0x40",
          "removed": false
        },
        {
          "address": "0x779877a7b0d9e8603169ddbd7836e478b4624789",
          "topics": [
            "0xe19260aff97b920c7df27010903aeb9c8d2be5d310a2c67824cf3f15396e4c16",
            "0x000000000000000000000000fbe6240fa92da1a8d969fd4518e56bfe475594e0",
            "0x0000000000000000000000009ddfaca8183c41ad55329bdeed9f6a8d53168b1b"
          ],
          "data": "0x00000000000000000000000000000000000000000000000029a2241af62c00000000000000000000000000000000000000000000000000000000000000000040000000000000000000000000000000000000000000000000000000000000002050bd4924a835d8626a6fbd1b0dd412c946b5abc78d2f7b6118fa3a5c5902e072",
          "blockHash": "0x30219e98292291add287770928b3b7a922b924c414591ad4ac3f8423c929d76e",
          "blockNumber": "0x952b95",
          "blockTimestamp": "0x69331b30",
          "transactionHash": "0x9b3efd6c988a213a7b9235f4338b01fccf6782ec4d30e062049c2a06387b8edc",
          "transactionIndex": "0x16",
          "logIndex": "0x41",
          "removed": false
        },
        {
          "address": "0x9ddfaca8183c41ad55329bdeed9f6a8d53168b1b",
          "topics": [
            "0x1ced9348ff549fceab2ac57cd3a9de38edaaab274b725ee82c23e8fc8c4eec7a",
            "0x50bd4924a835d8626a6fbd1b0dd412c946b5abc78d2f7b6118fa3a5c5902e072"
          ],
          "data": "0x000000000000000000000000000000000000000000000000000000000000000000000000000000000000000000000000000000000000000029a2241af62c0000",
          "blockHash": "0x30219e98292291add287770928b3b7a922b924c414591ad4ac3f8423c929d76e",
          "blockNumber": "0x952b95",
          "blockTimestamp": "0x69331b30",
          "transactionHash": "0x9b3efd6c988a213a7b9235f4338b01fccf6782ec4d30e062049c2a06387b8edc",
          "transactionIndex": "0x16",
          "logIndex": "0x42",
          "removed": false
        }
      ],
      "logsBloom": "0x00000004000000000000000000000000400000000020000000000000420000000000000000000000000000000000000000000000000000000000000000000000000000000000000200000008000000000000000000000000000020000020000008000000000000000000000000000000040000000000000000000010000040000000000000000000000000010000800020000020000000000080000000000000000000000000000000000000010000000000000000000000000004000000000000000002000000000000000000000000000000000000000100000000000000000010000000000000800000000000000000000000000000000000000000000000",
      "type": "0x2",
      "transactionHash": "0x9b3efd6c988a213a7b9235f4338b01fccf6782ec4d30e062049c2a06387b8edc",
      "transactionIndex": "0x16",
      "blockHash": "0x30219e98292291add287770928b3b7a922b924c414591ad4ac3f8423c929d76e",
      "blockNumber": "0x952b95",
      "gasUsed": "0x133b1",
      "effectiveGasPrice": "0xf75af",
      "from": "0xfbe6240fa92da1a8d969fd4518e56bfe475594e0",
      "to": "0x779877a7b0d9e8603169ddbd7836e478b4624789",
      "contractAddress": null
    }
  ],
  "libraries": [],
  "pending": [],
  "returns": {},
  "timestamp": 1764956976898,
  "chain": 11155111,
  "commit": "9350b86"
}